S00C00004D4355322E7372656301
S11300000C9436000C9453000C9453000C9453003D
S11300100C9453000C9453000C9453000C94530010
S11300200C9453000C9453000C9453000C94530000
S11300300C9453000C9488020C9453000C945300B9
S11300400C9453000C9453000C9453000C945300E0
S11300500C9453001D022102250229022D023102B3
S1130060350239023D0241024502490211241FBEF4
S1130070CFE5D8E0DEBFCDBF10E0A0E6B0E0EAE611
S1130080FBE002C005900D92A837B107D9F726E02E
S1130090A8E7B0E001C01D92A23AB207E1F70E94BE
S11300A0F5000C94B3050C94000081E00E94C50097
S11300B0089580E00E94C50008950E949D0010925A
S11300C0870087E890E00E94070365E570E087E811
S11300D090E00E94C20489E590E00E94F204089531
S11300E0CF93DF93CDB7DEB7C059D1400FB6F894A4
S11300F0DEBF0FBECDBF80E991E09093890080936D
S1130100880080E090E008C0E1E0F0E0EC0FFD1F23
S1130110E80FF91F80830196803921E09207A0F34C
S1130120CE01019690938B0080938A0087E890E03B
S11301300E9431030E94DA03FDCFCF93C0E080E038
S113014020C02C2F30E0F901EE0FFF1FE20FF31F48
S1130150EC59FF4F8181853480F4F901EE0FFF1FC4
S11301602E0F3F1FF901EC59FF4F6281683038F4BC
S113017041E00E94FA0080E003C081E001C082E017
S1130180CF5FC230F0F2CF91089520E00EC0422F2D
S113019050E0FA01EE0FFF1F4E0F5F1FFA01EC59FA
S11301A0FF4F9081981719F02F5F223080F330E0D1
S11301B0F901EE0FFF1FE20FF31FEC59FF4F81818E
S11301C0853478F4F901EE0FFF1F2E0F3F1FF9015C
S11301D0EC59FF4F6281683030F40E94850180E061
S11301E0089581E0089582E008950E945D000E94D0
S11301F07000FFCF683008F080C0442321F0413004
S113020009F440C07CC08234B1F018F4813431F078
S113021078C08334E9F0843441F173C02AB381E0B7
S113022090E002C0880F991F6A95E2F780958223B7
S11302308ABB80E0089527B381E090E002C0880F74
S1130240991F6A95E2F78095822387BB80E0089521
S113025024B381E090E002C0880F991F6A95E2F709
S11302608095822384BB80E0089521B381E090E0EF
S113027002C0880F991F6A95E2F78095822381BB9B
S113028080E008958234A9F018F4813431F03BC041
S11302908334D9F0843429F136C02AB381E090E064
S11302A002C0880F991F6A95E2F7822B8ABB80E00F
S11302B0089527B381E090E002C0880F991F6A95E2
S11302C0E2F7822B87BB80E0089524B381E090E0BD
S11302D002C0880F991F6A95E2F7822B84BB80E0E5
S11302E0089521B381E090E002C0880F991F6A95B8
S11302F0E2F7822B81BB80E0089582E0089584E0D8
S1130300089581E0089581E008956830D8F5823435
S1130310A9F018F4813431F037C08334D9F084342F
S113032029F132C02BB381E090E002C0880F991FFD
S11303306A95E2F782278BBB80E0089528B381E0B9
S113034090E002C0880F991F6A95E2F7822788BB64
S113035080E0089525B381E090E002C0880F991FE2
S11303606A95E2F7822785BB80E0089522B381E095
S113037090E002C0880F991F6A95E2F7822782BB3A
S113038080E0089582E0089581E0089540E060E00F
S113039084E40E94FA0041E061E084E40E94FA00EF
S11303A080916E00813029F48AB180688AB980E036
S11303B008C0811105C08AB18F778AB980E001C075
S11303C082E090917000913021F49AB190649AB9CE
S11303D007C0911104C09AB19F7B9AB901C082E011
S11303E090916D00913021F49AB190619AB907C04F
S11303F0911104C09AB19F7E9AB901C082E0909194
S11304006F00913021F49AB198609AB907C09111A4
S113041004C09AB1977F9AB901C082E09BB19D7FD5
S11304209BB9E0916C004E2F50E04C305105A8F57B
S1130430FA01E65DFF4F0C94AD059FEC99B910BC31
S11304402DC097E699B910BC29C093E399B910BCA3
S113045025C091E299B910BC21C099E199B910BCA9
S11304601DC090E199B910BC19C09CE099B910BCA9
S113047015C097E099B910BC11C095E099B910BCAA
S11304800DC093E099B910BC09C091E099B910BCB2
S113049005C091E099B910BC01C082E090916B0055
S11304A0923069F028F4992341F0913089F00DC01D
S11304B0933039F0943039F008C090E00AC094E0E9
S11304C008C096E006C096E004C090E082E001C057
S11304D092E0811102C0906890BD9FB790689FBF61
S11304E008955D9B02C081E0089580E008955D9BBE
S11304F003C08CB980E0089581E00895009731F03D
S113050090937C0080937B0080E0089582E00895BE
S11305101F920F920FB60F9211242F933F934F9374
S11305205F936F937F938F939F93AF93BF93EF9357
S1130530FF9380917A0081112AC080917800909174
S11305407900009771F42CB180E0922F90938D0480
S113055080938C0481E090E09093790080937800FC
S113056045C0019709F042C02CB180918C04909150
S11305708D04820F911D90938D0480938C0481E0EF
S113058080937A0010927900109278002FC0813005
S113059069F5809178009091790020918C043091D4
S11305A08D048217930710F52CB1FC01E457FF4F1B
S11305B020830196909379008093780020918C0495
S11305C030918D048217930789F4E0917B00F091B8
S11305D07C00309709F00995109279001092780008
S11305E010928D0410928C0410927A00FF91EF9176
S11305F0BF91AF919F918F917F916F915F914F9137
S11306003F912F910F900FBE0F901F901895DC0112
S113061090E080E01FC0292F30E0F901EE0FFF1FAA
S1130620EF58FF4F50814C91541312C0220F331FC7
S1130630F901EF58FF4F8181811104C00E94C60166
S113064080E00895813049F0823049F081E00895D6
S11306509F5F81E09330F8F2089580E0089580E090
S11306600895EF92FF920F931F93CF93DF93DC01D2
S113067090E010E01CC0292F30E0F901EE0FFF1FBD
S1130680EF58FF4F40818C9148130FC0220F331F46
S1130690F901EF58FF4F8181882369F0813071F0AF
S11306A0823079F000E011E00EC09F5F11E09330DA
S11306B010F300E008C000E010E005C001E010E025
S11306C002C002E010E0209160003091610080914E
S11306D0620090916300281739074CF4820F931F2E
S11306E020E032E0A901481B590BCA010FC0821750
S11306F0930754F4F901E81BF90B20E032E0A90157
S11307004E1B5F0BCA0102C080E092E011962D914E
S11307103C9112972817390708F043C07D0120E067
S113072032E04EE854E060E670E082E690E00E9439
S11307301705D7011196CC91119712960C9120E0D0
S113074032E04EE854E060E670E082E690E00E9419
S113075017050C2F20E032E04EE854E060E670E02C
S113076082E690E00E941705C0E0D0E013C0D701F4
S11307701396ED91FC911497EC0FFD1F008120E07E
S113078032E04EE854E060E670E082E690E00E94D9
S113079017052196F70181819281C817D90738F38B
S11307A001C013E0812FDF91CF911F910F91FF9032
S11307B0EF9008950F931F93CF93DF931F92CDB7BC
S11307C0DEB7198280916200909163000E94110546
S11307D0823009F0C4C0809184008230E1F128F4B1
S11307E0882351F08130A1F0BCC0833009F45CC08F
S11307F0843009F469C0B5C003E810E020E032E0B9
S11308004EE854E060E670E082E690E00E94520513
S113081080918300882329F0833008F0A4C080E00D
S1130820ABC00E947102813009F09FC002E810E061
S113083020E032E04EE854E060E670E082E690E0CA
S11308400E945205809182000E94770282E0809388
S1130850840080E091C080918300882321F083305C
S1130860D8F480E01CC00E9471028130B9F401E820
S113087010E020E032E04EE854E060E670E082E60A
S113088090E00E945205809181000E94770283E0EB
S11308908093840080E003C081E001C080E09091F7
S11308A08400933009F068C08091820090E0982F12
S11308B0882720918100820F911D9093800080935E
S11308C07F0084E0809384008091830081114FC075
S11308D00E947102813009F04CC020917D0030915A
S11308E07E0080917F009091800028173907C8F41A
S11308F08E010F5F1F4F20E032E04EE854E060E6C7
S113090070E082E690E00E94520589810E9477029D
S113091080917D0090917E00019690937E0080935B
S11309207D0020917D0030917E0080917F00909128
S1130930800028173907F9F4E0918500F0918600CA
S1130940309709F009951092800010927F00109260
S11309507E0010927D001092840081E00DC082E040
S11309600BC081E009C081E007C080E005C081E0E0
S113097003C081E001C081E00F90DF91CF911F910E
S11309800F910895DC016115710519F581E0089551
S1130990292F30E0F901EE0FFF1FEF58FF4F508170
S11309A04C91541313C0220F331FF901EF58FF4F1A
S11309B08181811105C0CB010E947E0280E00895EF
S11309C0813061F0823061F081E008959F5F81E0C1
S11309D002C090E080E09330D8F2089580E008955A
S11309E080E00895009731F090938600809385000D
S11309F080E0089581E008959B012F5F3F4F281701
S1130A00390749F0892B49F44150510946175707D2
S1130A1031F080E0089581E0089580E0089581E058
S1130A200895019611F082E0089583E008958F926D
S1130A309F92AF92BF92CF92DF92EF92FF920F9369
S1130A40CF93DF934C01EB017A016901FC01A08093
S1130A50B18068817981A901C5010E94FC048130BB
S1130A60A1F0AB20A09419F4F401118210828881C2
S1130A7099810196B6010E94990599838883F701AB
S1130A80E80FF91F008380E001C081E0DF91CF917E
S1130A900F91FF90EF90DF90CF90BF90AF909F9019
S1130AA08F9008958F929F92AF92BF92CF92DF92D0
S1130AB0EF92FF920F931F93CF93DF937C016B010F
S1130AC05A014901FC01C081D181CE010E94110566
S1130AD0833009F1CA0DDB1D8881F8018083F70199
S1130AE080819181F601208131818217930751F42D
S1130AF08FEF9FEFF70191838083F60191838083C9
S1130B0082E00AC00196B4010E949905F70191831D
S1130B10808382E001C083E0DF91CF911F910F9128
S1130B20FF90EF90DF90CF90BF90AF909F908F9009
S1130B300895AA1BBB1B51E107C0AA1FBB1FA61720
S1130B40B70710F0A61BB70B881F991F5A95A9F772
S1130B5080959095BC01CD010895EE0FFF1F05907F
S10D0B60F491E02D0994F894FFCFFE
S1130B6AFFFFFFFF004204014205000302010101E5
S10B0B7A000000020101020069
S9030000FC
