S01400004C45445F53657175656E63652E73726563A3
S11300000C9432000C944F000C944F000C944F004D
S11300100C944F000C944F000C944F000C944F0020
S11300200C944F000C944F000C944F000C944F0010
S11300300C944F000C944F000C944F000C944F0000
S11300400C944F000C944F000C944F000C944F00F0
S11300500C944F008F009C00A900B600C300D00090
S1130060DD00EA0011241FBECFE5D8E0DEBFCDBF1E
S113007010E0A0E6B0E0EAE5F6E002C005900D92DB
S1130080AC36B107D9F720E0ACE6B0E001C01D9270
S1130090AE36B207E1F70E949B010C942B030C943B
S11300A0000064E083E40E9404010E940F010895AB
S11300B04DE650E064E083E40E940A0180916D0003
S11300C0882309F4A0C02FEF86E791E021508040F7
S11300D09040E1F700C000004DE650E064E083E4A6
S11300E00E940A0180916D00882309F48CC04DE6BA
S11300F050E064E083E40E940A0180916C00E1E036
S1130100E80FE0936C008E2F90E0FC013197E8300B
S1130110F10508F074C0E65DFF4F0C94250380E000
S11301200E94370181E00E94690182E00E94690116
S113013083E00E94690163C080E00E94370181E08E
S11301400E94370182E00E94690183E00E946901F4
S113015056C080E00E94370181E00E94370182E0AE
S11301600E94370183E00E94690149C080E00E9437
S1130170370181E00E94370182E00E94370183E069
S11301800E9437013CC080E00E94690181E00E9426
S1130190370182E00E94370183E00E9437012FC0BB
S11301A080E00E94690181E00E94690182E00E946E
S11301B0370183E00E94370122C080E00E94690178
S11301C081E00E94690182E00E94690183E00E944B
S11301D0370115C080E00E94690181E00E94690135
S11301E082E00E94690183E00E94690110926C0020
S11301F006C04DE650E064E083E40E940A01809169
S11302006D008111F6CF089540E00E94A001811194
S113021081E008950E94B602811181E00895CF9390
S1130220C0E080E020C02C2F30E0F901EE0FFF1F6A
S1130230E20FF31FE05AFF4F8181853480F4F90106
S1130240EE0FFF1F2E0F3F1FF901E05AFF4F62818F
S1130250683038F441E00E94A00180E003C081E0EE
S113026001C082E0CF5FC430F0F2CF91089590E0F6
S11302700EC0292F30E0F901EE0FFF1F2E0F3F1F94
S1130280F901E05AFF4F2081281719F09F5F94303D
S113029080F3292F30E0F901EE0FFF1FE20FF31F67
S11302A0E05AFF4F8181853480F4F901EE0FFF1F7E
S11302B02E0F3F1FF901E05AFF4F6281683038F476
S11302C041E00E942B0280E0089581E0089582E0DD
S11302D0089590E00EC0292F30E0F901EE0FFF1FC2
S11302E02E0F3F1FF901E05AFF4F2081281719F004
S11302F09F5F943080F3292F30E0F901EE0FFF1F48
S1130300E20FF31FE05AFF4F8181853480F4F90135
S1130310EE0FFF1F2E0F3F1FF901E05AFF4F6281BE
S1130320683038F440E00E942B0280E0089581E0B8
S1130330089582E008950E9451000E945800FDCF64
S1130340683008F080C0442321F0413009F440C0F3
S11303507CC08234B1F018F4813431F078C0833435
S1130360E9F0843441F173C02AB381E090E002C023
S1130370880F991F6A95E2F7809582238ABB80E0F3
S1130380089527B381E090E002C0880F991F6A9511
S1130390E2F78095822387BB80E0089524B381E04F
S11303A090E002C0880F991F6A95E2F78095822336
S11303B084BB80E0089521B381E090E002C0880FFF
S11303C0991F6A95E2F78095822381BB80E00895A6
S11303D08234A9F018F4813431F03BC08334D9F06D
S11303E0843429F136C02AB381E090E002C0880F3A
S11303F0991F6A95E2F7822B8ABB80E0089527B3A0
S113040081E090E002C0880F991F6A95E2F7822B81
S113041087BB80E0089524B381E090E002C0880F98
S1130420991F6A95E2F7822B84BB80E0089521B37B
S113043081E090E002C0880F991F6A95E2F7822B51
S113044081BB80E0089582E0089584E0089581E00E
S1130450089581E00895683008F080C0442321F0B5
S1130460413009F440C07CC08234B1F018F48134C6
S113047031F078C08334E9F0843441F173C02BB394
S113048081E090E002C0880F991F6A95E2F7809599
S113049082238BBB80E0089528B381E090E002C002
S11304A0880F991F6A95E2F78095822388BB80E0C4
S11304B0089525B381E090E002C0880F991F6A95E2
S11304C0E2F78095822385BB80E0089522B381E022
S11304D090E002C0880F991F6A95E2F78095822305
S11304E082BB80E008958234A9F018F4813431F09D
S11304F03BC08334D9F0843429F136C02BB381E076
S113050090E002C0880F991F6A95E2F7822B8BBB9B
S113051080E0089528B381E090E002C0880F991F1D
S11305206A95E2F7822B88BB80E0089525B381E0C9
S113053090E002C0880F991F6A95E2F7822B85BB71
S113054080E0089522B381E090E002C0880F991FF3
S11305506A95E2F7822B82BB80E0089582E00895D9
S113056083E0089581E0089581E00895683008F0FB
S113057068C0823409F118F4813439F064C08334DA
S113058091F1843409F446C05EC079B381E090E00F
S11305909C01062E02C0220F331F0A94E2F7872F14
S11305A090E08223932302C0959587956A95E2F79C
S11305B0FA01808380E0089576B381E090E09C01A5
S11305C0062E02C0220F331F0A94E2F7872F90E011
S11305D08223932302C0959587956A95E2F7FA01E1
S11305E0808380E0089573B381E090E09C01062E3F
S11305F002C0220F331F0A94E2F7872F90E0822370
S1130600932302C0959587956A95E2F7FA01808352
S113061080E0089570B381E090E09C01062E02C052
S1130620220F331F0A94E2F7872F90E0822393234B
S113063002C0959587956A95E2F7FA01808380E078
S1130640089582E0089581E00895EE0FFF1F05905C
S10D0650F491E02D0994F894FFCF13
S10F065A0042040142050242060342076C
S9030000FC
