:100000000C9432000C9423040C944C040C9475044E
:100010000C944F000C9458080C944F000C944F0013
:100020000C944F000C94F6070C944F000C94950719
:100030000C944F000C944F000C944F000C944F0004
:100040000C944F000C944F000C944F000C944F00F4
:100050000C944F00A300B000BD00CA00D700E4001C
:10006000F100FE0011241FBECFE5D8E0DEBFCDBFFA
:1000700010E0A0E6B0E0E2EBF4E102C005900D92E2
:10008000A237B107D9F720E0A2E7B0E001C01D9286
:10009000A23AB207E1F70E944D020C94570A0C9461
:1000A0000000809175008230E9F028F4882341F047
:1000B000813079F008958330F1F0843029F108958A
:1000C00081E08093610099E09093600080937500D7
:1000D000089582E08093610098E09093600080939F
:1000E0007500089583E08093610097E0909360002D
:1000F00080937500089585E080936100809360008F
:1001000084E080937500089588E08093610082E028
:1001100080936000109275000895CF93DF93EC01F7
:10012000662321F0613009F477C082C0E8818E2F08
:1001300090E0FC013197E830F10508F079C0E65D08
:10014000FF4F0C94510A80E00E94E90181E00E9477
:100150001B0282E00E941B0283E00E941B0268C017
:1001600080E00E94E90181E00E94E90182E00E94B2
:100170001B0283E00E941B025BC080E00E94E90139
:1001800081E00E94E90182E00E94E90183E00E948F
:100190001B024EC080E00E94E90181E00E94E9015B
:1001A00082E00E94E90183E00E94E90141C080E011
:1001B0000E941B0281E00E94E90182E00E94E901A5
:1001C00083E00E94E90134C080E00E941B0281E0CC
:1001D0000E941B0282E00E94E90183E00E94E90183
:1001E00027C080E00E941B0281E00E941B0282E087
:1001F0000E941B0283E00E94E9011AC080E00E9475
:100200001B0281E00E941B0282E00E941B0283E02D
:100210000E941B0218820CC080E00E941B0281E039
:100220000E941B0282E00E941B0283E00E941B02CC
:10023000DF91CF910895209173008091610028177C
:1002400068F41092720060E084E790E00E948D00F4
:10025000809173008F5F809373000895281760F07A
:1002600030E04091600090E0840F911D281739071D
:1002700034F080E090E005C080E090E002C081E0D2
:1002800090E00197D1F481E08093720061E084E70F
:1002900090E00E948D00809173008F5F80937300C7
:1002A00090E0409161002091600030E0240F311D0A
:1002B0008217930714F010927300089564E083E4AA
:1002C0000E94B6010E94C10180E00E94D70361E54F
:1002D00070E080E00E940B040E949E0440E050E029
:1002E00068EC72E480E00E9428056BE171E080E038
:1002F0000E94760780E00E947F060895CF93DF93E7
:100300001F92CDB7DEB71982AE014F5F5F4F64E039
:1003100083E40E94BC0189818130A9F7AE014F5F5F
:100320005F4F64E083E40E94BC018981813059F70A
:10033000AE014F5F5F4F64E083E40E94BC01809197
:1003400074008F5F809374006091720084E790E086
:100350000E948D0007C0AE014F5F5F4F64E083E4F1
:100360000E94BC0189818130B1F3CDCF40E00E9471
:100370005202811181E008950E946803811181E099
:100380000895CF93C0E080E020C02C2F30E0F90129
:10039000EE0FFF1FE20FF31FEE59FF4F81818534EF
:1003A00080F4F901EE0FFF1F2E0F3F1FF901EE59E8
:1003B000FF4F6281683038F441E00E94520280E0D1
:1003C00003C081E001C082E0CF5FC430F0F2CF9182
:1003D000089590E00EC0292F30E0F901EE0FFF1FC5
:1003E0002E0F3F1FF901EE59FF4F2081281719F0FA
:1003F0009F5F943080F3292F30E0F901EE0FFF1F4B
:10040000E20FF31FEE59FF4F8181853480F4F9012B
:10041000EE0FFF1F2E0F3F1FF901EE59FF4F6281B4
:10042000683038F441E00E94DD0280E0089581E008
:10043000089582E0089590E00EC0292F30E0F90180
:10044000EE0FFF1F2E0F3F1FF901EE59FF4F2081C6
:10045000281719F09F5F943080F3292F30E0F901BD
:10046000EE0FFF1FE20FF31FEE59FF4F818185341E
:1004700080F4F901EE0FFF1F2E0F3F1FF901EE5917
:10048000FF4F6281683038F440E00E94DD0280E076
:10049000089581E0089582E008950E945E010E941F
:1004A0007E01FFCF683008F080C0442321F0413046
:1004B00009F440C07CC08234B1F018F4813431F0CA
:1004C00078C08334E9F0843441F173C02AB381E009
:1004D00090E002C0880F991F6A95E2F78095822309
:1004E0008ABB80E0089527B381E090E002C0880FC6
:1004F000991F6A95E2F78095822387BB80E0089573
:1005000024B381E090E002C0880F991F6A95E2F75A
:100510008095822384BB80E0089521B381E090E040
:1005200002C0880F991F6A95E2F78095822381BBEC
:1005300080E008958234A9F018F4813431F03BC092
:100540008334D9F0843429F136C02AB381E090E0B5
:1005500002C0880F991F6A95E2F7822B8ABB80E060
:10056000089527B381E090E002C0880F991F6A9533
:10057000E2F7822B87BB80E0089524B381E090E00E
:1005800002C0880F991F6A95E2F7822B84BB80E036
:10059000089521B381E090E002C0880F991F6A9509
:1005A000E2F7822B81BB80E0089582E0089584E029
:1005B000089581E0089581E00895683008F080C0D2
:1005C000442321F0413009F440C07CC08234B1F0B2
:1005D00018F4813431F078C08334E9F0843441F187
:1005E00073C02BB381E090E002C0880F991F6A9519
:1005F000E2F7809582238BBB80E0089528B381E0E9
:1006000090E002C0880F991F6A95E2F780958223D7
:1006100088BB80E0089525B381E090E002C0880F98
:10062000991F6A95E2F78095822385BB80E0089543
:1006300022B381E090E002C0880F991F6A95E2F72B
:100640008095822382BB80E008958234A9F018F45B
:10065000813431F03BC08334D9F0843429F136C081
:100660002BB381E090E002C0880F991F6A95E2F7F2
:10067000822B8BBB80E0089528B381E090E002C01C
:10068000880F991F6A95E2F7822B88BB80E0089556
:1006900025B381E090E002C0880F991F6A95E2F7C8
:1006A000822B85BB80E0089522B381E090E002C0F8
:1006B000880F991F6A95E2F7822B82BB80E008952C
:1006C00082E0089583E0089581E0089581E008952F
:1006D000683008F068C0823409F118F4813439F0C8
:1006E00064C0833491F1843409F446C05EC079B3A8
:1006F00081E090E09C01062E02C0220F331F0A9475
:10070000E2F7872F90E08223932302C09595879587
:100710006A95E2F7FA01808380E0089576B381E07C
:1007200090E09C01062E02C0220F331F0A94E2F7CC
:10073000872F90E08223932302C0959587956A9531
:10074000E2F7FA01808380E0089573B381E090E0DE
:100750009C01062E02C0220F331F0A94E2F7872F56
:1007600090E08223932302C0959587956A95E2F7DE
:10077000FA01808380E0089570B381E090E09C01ED
:10078000062E02C0220F331F0A94E2F7872F90E053
:100790008223932302C0959587956A95E2F7FA0123
:1007A000808380E0089582E0089581E0089581309B
:1007B00061F018F0823089F015C095B7916095BF4F
:1007C00095B7926095BF20E00EC095B7946095BF35
:1007D00095B7986095BF20E006C094B7906494BF29
:1007E00020E001C021E0813041F018F0823049F072
:1007F0000CC08BB780648BBF09C08BB780688BBF80
:1008000005C08BB780628BBF01C021E09FB79068A5
:100810009FBF822F089561157105A1F0811105C058
:1008200070937B0060937A000895813029F470936F
:100830007900609378000895823021F470937700F6
:100840006093760008951F920F920FB60F921124B5
:100850002F933F934F935F936F937F938F939F93C8
:10086000AF93BF93EF93FF93E0917A00F0917B00F9
:10087000309709F00995FF91EF91BF91AF919F914A
:100880008F917F916F915F914F913F912F910F9039
:100890000FBE0F901F9018951F920F920FB60F92D8
:1008A00011242F933F934F935F936F937F938F9375
:1008B0009F93AF93BF93EF93FF93E0917800F091F4
:1008C0007900309709F00995FF91EF91BF91AF91B1
:1008D0009F918F917F916F915F914F913F912F9158
:1008E0000F900FBE0F901F9018951F920F920FB68A
:1008F0000F9211242F933F934F935F936F937F93A6
:100900008F939F93AF93BF93EF93FF93E091760004
:10091000F0917700309709F00995FF91EF91BF9121
:10092000AF919F918F917F916F915F914F913F9187
:100930002F910F900FBE0F901F90189590E080E0C0
:1009400080C0292F30E0F901EE0FFF1FEE0FFF1FCF
:10095000E259FF4F4081413041F120F0423009F42B
:1009600044C065C0220F331F220F331FF901E25923
:10097000FF4F2181213009F461C018F0223059F075
:1009800058C023B7277F23BF23B72F7B23BF29B7A7
:10099000216029BF53C023B7286023BF23B72F7B13
:1009A00023BF29B7226029BF49C0220F331F220F5E
:1009B000331FF901E259FF4F2181222319F023301F
:1009C000D0F53CC02FB52F772FBD2FB52F7B2FBD76
:1009D0002EB52F7E2EBD2EB5277F2EBD2FB52D7F98
:1009E0002FBD2FB52E7F2FBD29C0220F331F220F01
:1009F000331FF901E259FF4F21812130F9F018F03E
:100A0000223059F01AC025B5277F25BD25B52F7B8B
:100A100025BD29B7206429BF11C023B7286023BF93
:100A200023B72F7B23BF29B7206829BF07C081E0E8
:100A300005C083E003C083E001C083E0811104C0EE
:100A40009F5F992309F47DCF9FB790689FBF08955A
:100A5000CF92DF92EF92FF92CF93DF936A017B01F7
:100A6000813009F464C020F0823009F4C8C033C179
:100A700090E0FC01EE0FFF1FEE0FFF1FE259FF4F4A
:100A80002181222329F0233008F027C180E030C1E2
:100A9000880F991F880F991FFC01E259FF4F62814F
:100AA0007381EB01D695C795D695C795D695C79511
:100AB00020E030E04AE754E4C701B6010E94E409AF
:100AC0006B017C01BE0180E090E00E9456099B0111
:100AD000AC01C701B6010E94B5080E942709C72EC4
:100AE000D82EE92EFF24C0929800D0929900E0926F
:100AF0009A00F0929B0060939700662309F4EFC080
:100B0000619562BF8091980090919900A0919A00A0
:100B1000B0919B000196A11DB11D80939800909308
:100B20009900A0939A00B0939B0080E0E1C090E010
:100B3000FC01EE0FFF1FEE0FFF1FE259FF4F218157
:100B4000222329F0233008F0CCC080E0D1C0880FE8
:100B5000991F880F991FFC01E259FF4F6281738131
:100B6000EB01D695C795D695C795D695C79520E044
:100B700030E04AE754E4C701B6010E94E4096B0182
:100B80007C01BE0180E090E00E9456099B01AC010F
:100B9000C701B6010E94B5080E9427096C01EE2426
:100BA000FF24C0928F00D0929000E0929100F092CA
:100BB000920070938E0060938D006115710509F4A9
:100BC00092C07195619571098CB5862B8CBD8DB5E0
:100BD000872B8DBD8091850090918600A091870024
:100BE000B09188000196A11DB11D8093850090935E
:100BF0008600A0938700B093880080E079C090E0E1
:100C0000FC01EE0FFF1FEE0FFF1FE259FF4F218186
:100C1000222329F0233008F068C080E069C0880FE3
:100C2000991F880F991FFC01E259FF4F6281738160
:100C3000EB01D695C795D695C795D695C79520E073
:100C400030E04AE754E4C701B6010E94E4096B01B1
:100C50007C01BE0180E090E00E9456099B01AC013E
:100C6000C701B6010E94B5080E942709C72ED82ED9
:100C7000E92EFF24C0928500D0928600E092870082
:100C8000F0928800DC01CB019927AA27BB2780932B
:100C9000810090938200A0938300B093840000971A
:100CA000A105B10521F1682F619564BD8091850092
:100CB00090918600A0918700B09188000196A11DB7
:100CC000B11D8093850090938600A0938700B09318
:100CD000880080E00DC081E00BC083E009C080E0A7
:100CE00007C083E005C080E003C083E001C080E06E
:100CF000DF91CF91FF90EF90DF90CF9008958130FA
:100D000009F452C020F0823009F49BC0E7C0809102
:100D10007000909171008034910529F130F4813098
:100D2000910559F00897A1F0DBC0811521E09207E9
:100D300029F18115944069F1D3C083B78B7F83BFBC
:100D400083B78D7F83BF83B7816083BF80E00895C1
:100D500083B78B7F83BF83B7826083BF83B78E7F68
:100D600083BF80E0089583B78B7F83BF83B78260A2
:100D700083BF83B7816083BF80E0089583B78460B9
:100D800083BF83B78D7F83BF83B78E7F83BF80E0B0
:100D9000089583B7846083BF83B78D7F83BF83B794
:100DA000816083BF80E00895809174009091750008
:100DB0008034910529F130F48130910559F008977C
:100DC000A1F090C0811521E0920729F1811594408E
:100DD00069F188C08EB58B7F8EBD8EB58D7F8EBD3F
:100DE0008EB581608EBD80E008958EB58B7F8EBDFF
:100DF0008EB582608EBD8EB58E7F8EBD80E00895EB
:100E00008EB58B7F8EBD8EB582608EBD8EB58160B6
:100E10008EBD80E008958EB584608EBD8EB58D7FC9
:100E20008EBD8EB58E7F8EBD80E008958EB58460B8
:100E30008EBD8EB58D7F8EBD8EB581608EBD80E0FE
:100E4000089580917400909175008034910529F186
:100E500030F48130910559F00897A1F045C0811513
:100E600021E0920729F18115944069F13DC085B5D3
:100E70008B7F85BD85B58D7F85BD85B5816085BD41
:100E800080E0089585B58B7F85BD85B5826085BD81
:100E900085B58E7F85BD80E0089585B5846085BD6C
:100EA00085B58D7F85BD85B58E7F85BD80E0089534
:100EB00085B5846085BD85B5826085BD85B58E7F2D
:100EC00085BD80E0089585B5846085BD85B5826067
:100ED00085BD85B5816085BD80E0089583E0089576
:100EE00083E0089583E0089583E008956115710516
:100EF000C1F0813051F018F0823069F014C0709365
:100F0000A1006093A00080E0089570939F0060931B
:100F10009E0080E0089570939D0060939C0080E0A7
:100F2000089583E0089581E008951F920F920FB60F
:100F30000F9211242F933F934F935F936F937F935F
:100F40008F939F93AF93BF93EF93FF9380917C0018
:100F500081113BC08091930090919400A0919500E5
:100F6000B09196000196A11DB11D809393009093BE
:100F70009400A0939500B0939600409193005091F7
:100F800094006091950070919600809198009091E6
:100F90009900A0919A00B0919B00481759076A07E1
:100FA0007B0799F4E091A000F091A100309709F03F
:100FB000099510929300109294001092950010924F
:100FC000960080919700819582BFFF91EF91BF912C
:100FD000AF919F918F917F916F915F914F913F91D1
:100FE0002F910F900FBE0F901F9018951F920F9288
:100FF0000FB60F9211242F933F934F935F936F93EC
:101000007F938F939F93AF93BF93EF93FF938091C1
:10101000890090918A00A0918B00B0918C0001967C
:10102000A11DB11D8093890090938A00A0938B002D
:10103000B0938C004091890050918A0060918B00A0
:1010400070918C0080918F0090919000A091910000
:10105000B0919200481759076A077B07C1F4E091E5
:101060009E00F0919F00309709F009951092890039
:1010700010928A0010928B0010928C0080918D004B
:1010800090918E009195819591099DBD8CBDFF91A8
:10109000EF91BF91AF919F918F917F916F915F91F0
:1010A0004F913F912F910F900FBE0F901F90189569
:1010B0001F920F920FB60F9211242F933F934F93CD
:1010C0005F936F937F938F939F93AF93BF93EF93B0
:1010D000FF9380917D0090917E00A0917F00B09160
:1010E00080000196A11DB11D80937D0090937E002C
:1010F000A0937F00B093800040917D0050917E00CE
:1011000060917F00709180008091850090918600B1
:10111000A0918700B0918800481759076A077B079C
:1011200099F4E0919C00F0919D00309709F00995A9
:1011300010927D0010927E0010927F00109280002D
:1011400080918100819584BDFF91EF91BF91AF9116
:101150009F918F917F916F915F914F913F912F91CF
:101160000F900FBE0F901F9018950E94C9080C9405
:10117000AA090E94A30958F00E949C0940F029F492
:101180005F3F29F00C94930951110C94DE090C94E3
:1011900099090E94BB0968F39923B1F3552391F390
:1011A000951B550BBB27AA2762177307840738F0D6
:1011B0009F5F5F4F220F331F441FAA1FA9F335D033
:1011C0000E2E3AF0E0E832D091505040E695001CE7
:1011D000CAF72BD0FE2F29D0660F771F881FBB1FA1
:1011E000261737074807AB07B0E809F0BB0B802D7F
:1011F000BF01FF2793585F4F3AF09E3F510578F0AB
:101200000C9493090C94DE095F3FE4F3983ED4F309
:10121000869577956795B795F7959F5FC9F7880F7E
:10122000911D9695879597F90895E1E0660F771FD0
:10123000881FBB1F621773078407BA0720F0621B61
:10124000730B840BBA0BEE1F88F7E09508950E948C
:10125000C30988F09F5798F0B92F9927B751B0F07C
:10126000E1F0660F771F881F991F1AF0BA95C9F72A
:1012700014C0B13091F00E94DD09B1E008950C94E2
:10128000DD09672F782F8827B85F39F0B93FCCF395
:10129000869577956795B395D9F73EF490958095A7
:1012A000709561957F4F8F4F9F4F0895E89409C0C7
:1012B00097FB3EF490958095709561957F4F8F4F89
:1012C0009F4F9923A9F0F92F96E9BB279395F6959F
:1012D000879577956795B795F111F8CFFAF4BB0F1D
:1012E00011F460FF1BC06F5F7F4F8F4F9F4F16C081
:1012F000882311F096E911C0772321F09EE8872F0B
:10130000762F05C0662371F096E8862F70E060E0C6
:101310002AF09A95660F771F881FDAF7880F96953F
:10132000879597F9089597F99F6780E870E060E0E6
:1013300008959FEF80EC089500240A94161617066E
:1013400018060906089500240A94121613061406B6
:1013500005060895092E0394000C11F4882352F019
:10136000BB0F40F4BF2B11F460FF04C06F5F7F4FD1
:101370008F4F9F4F089557FD9058440F551F59F0B8
:101380005F3F71F04795880F97FB991F61F09F3F72
:1013900079F087950895121613061406551FF2CF9B
:1013A0004695F1DF08C0161617061806991FF1CFEB
:1013B00086957105610508940895E894BB27662712
:1013C0007727CB0197F908950E94F7090C94AA0991
:1013D0000E949C0938F00E94A30920F0952311F087
:1013E0000C9493090C94990911240C94DE090E9421
:1013F000BB0970F3959FC1F3950F50E0551F629F95
:10140000F001729FBB27F00DB11D639FAA27F00D5D
:10141000B11DAA1F649F6627B00DA11D661F829F84
:101420002227B00DA11D621F739FB00DA11D621F69
:10143000839FA00D611D221F749F3327A00D611D86
:10144000231F849F600D211D822F762F6A2F112468
:101450009F5750409AF0F1F088234AF0EE0FFF1F9B
:10146000BB1F661F771F881F91505040A9F79E3FF2
:10147000510580F00C9493090C94DE095F3FE4F36E
:10148000983ED4F3869577956795B795F795E79548
:101490009F5FC1F7FE2B880F911D9695879597F951
:1014A0000895EE0FFF1F0590F491E02D0994F89434
:0214B000FFCF6C
:1014B20009010042040142050242060342070000FC
:0214C2004000E8
:00000001FF
